{"abi":[{"type":"constructor","inputs":[{"name":"_registry","type":"address","internalType":"address"},{"name":"_treasury","type":"address","internalType":"address"},{"name":"_price","type":"uint256","internalType":"uint256"},{"name":"_limitToOne","type":"bool","internalType":"bool"}],"stateMutability":"nonpayable"},{"type":"function","name":"canRegister","inputs":[{"name":"wallet","type":"address","internalType":"address"}],"outputs":[{"name":"","type":"bool","internalType":"bool"}],"stateMutability":"view"},{"type":"function","name":"chainId","inputs":[],"outputs":[{"name":"","type":"uint64","internalType":"uint64"}],"stateMutability":"view"},{"type":"function","name":"limitToOne","inputs":[],"outputs":[{"name":"","type":"bool","internalType":"bool"}],"stateMutability":"view"},{"type":"function","name":"owner","inputs":[],"outputs":[{"name":"","type":"address","internalType":"address"}],"stateMutability":"view"},{"type":"function","name":"paused","inputs":[],"outputs":[{"name":"","type":"bool","internalType":"bool"}],"stateMutability":"view"},{"type":"function","name":"price","inputs":[],"outputs":[{"name":"","type":"uint256","internalType":"uint256"}],"stateMutability":"view"},{"type":"function","name":"register","inputs":[{"name":"label","type":"string","internalType":"string"},{"name":"recipient","type":"address","internalType":"address"}],"outputs":[],"stateMutability":"payable"},{"type":"function","name":"registry","inputs":[],"outputs":[{"name":"","type":"address","internalType":"contract IL2Registry"}],"stateMutability":"view"},{"type":"function","name":"rootNode","inputs":[],"outputs":[{"name":"","type":"bytes32","internalType":"bytes32"}],"stateMutability":"view"},{"type":"function","name":"setLimitToOne","inputs":[{"name":"_enabled","type":"bool","internalType":"bool"}],"outputs":[],"stateMutability":"nonpayable"},{"type":"function","name":"setPaused","inputs":[{"name":"_paused","type":"bool","internalType":"bool"}],"outputs":[],"stateMutability":"nonpayable"},{"type":"function","name":"setPrice","inputs":[{"name":"_price","type":"uint256","internalType":"uint256"}],"outputs":[],"stateMutability":"nonpayable"},{"type":"function","name":"setTreasury","inputs":[{"name":"_treasury","type":"address","internalType":"address"}],"outputs":[],"stateMutability":"nonpayable"},{"type":"function","name":"transferOwnership","inputs":[{"name":"_newOwner","type":"address","internalType":"address"}],"outputs":[],"stateMutability":"nonpayable"},{"type":"function","name":"treasury","inputs":[],"outputs":[{"name":"","type":"address","internalType":"address"}],"stateMutability":"view"},{"type":"event","name":"LimitToOneSet","inputs":[{"name":"enabled","type":"bool","indexed":false,"internalType":"bool"}],"anonymous":false},{"type":"event","name":"OwnershipTransferred","inputs":[{"name":"previous","type":"address","indexed":true,"internalType":"address"},{"name":"next","type":"address","indexed":true,"internalType":"address"}],"anonymous":false},{"type":"event","name":"Paused","inputs":[{"name":"paused","type":"bool","indexed":false,"internalType":"bool"}],"anonymous":false},{"type":"event","name":"PriceSet","inputs":[{"name":"price","type":"uint256","indexed":false,"internalType":"uint256"}],"anonymous":false},{"type":"event","name":"Registered","inputs":[{"name":"label","type":"string","indexed":false,"internalType":"string"},{"name":"minter","type":"address","indexed":true,"internalType":"address"},{"name":"node","type":"bytes32","indexed":true,"internalType":"bytes32"}],"anonymous":false},{"type":"event","name":"TreasurySet","inputs":[{"name":"treasury","type":"address","indexed":false,"internalType":"address"}],"anonymous":false},{"type":"error","name":"AlreadyOwnsSubdomain","inputs":[]},{"type":"error","name":"InsufficientPayment","inputs":[{"name":"sent","type":"uint256","internalType":"uint256"},{"name":"required","type":"uint256","internalType":"uint256"}]},{"type":"error","name":"NotOwner","inputs":[]},{"type":"error","name":"Paused_","inputs":[]}],"bytecode":{"object":"0x60e060405234801561000f575f80fd5b50604051610e09380380610e0983398101604081905261002e9161012c565b6001600160a01b03841660808190526001600160401b03461660a05260408051630ddf7fcb60e41b8152905163ddf7fcb0916004808201926020929091908290030181865afa158015610083573d5f803e3d5ffd5b505050506040513d601f19601f820116820180604052508101906100a7919061017c565b60c0525f80546001600160a01b031916331790556001600160a01b038316156100d057826100d2565b335b600180546001600160a01b0319166001600160a01b03929092169190911790556002919091556003805460ff1916911515919091179055506101939050565b80516001600160a01b0381168114610127575f80fd5b919050565b5f805f806080858703121561013f575f80fd5b61014885610111565b935061015660208601610111565b92506040850151915060608501518015158114610171575f80fd5b939692955090935050565b5f6020828403121561018c575f80fd5b5051919050565b60805160a05160c051610c296101e05f395f818161030b015281816106a2015261074801525f61025e01525f81816101ee0152818161049e0152818161067b01526107f60152610c295ff3fe6080604052600436106100e4575f3560e01c80637b10399911610087578063a035b1fe11610057578063a035b1fe14610299578063f0f44260146102bc578063f2fde38b146102db578063faff50a8146102fa575f80fd5b80637b103999146101dd5780638da5cb5b1461021057806391b7f5ed1461022e5780639a8a05921461024d575f80fd5b8063320d46d4116100c2578063320d46d41461013b5780634ac7ee931461016f5780635c975abb1461018857806361d027b3146101a6575f80fd5b806313f5347e146100e857806316c38b3c146101095780631e59c52914610128575b5f80fd5b3480156100f3575f80fd5b506101076101023660046109d1565b61032d565b005b348015610114575f80fd5b506101076101233660046109d1565b61039f565b610107610136366004610a12565b610412565b348015610146575f80fd5b5061015a610155366004610a8c565b6107af565b60405190151581526020015b60405180910390f35b34801561017a575f80fd5b5060035461015a9060ff1681565b348015610193575f80fd5b5060035461015a90610100900460ff1681565b3480156101b1575f80fd5b506001546101c5906001600160a01b031681565b6040516001600160a01b039091168152602001610166565b3480156101e8575f80fd5b506101c57f000000000000000000000000000000000000000000000000000000000000000081565b34801561021b575f80fd5b505f546101c5906001600160a01b031681565b348015610239575f80fd5b50610107610248366004610aa5565b610877565b348015610258575f80fd5b506102807f000000000000000000000000000000000000000000000000000000000000000081565b60405167ffffffffffffffff9091168152602001610166565b3480156102a4575f80fd5b506102ae60025481565b604051908152602001610166565b3480156102c7575f80fd5b506101076102d6366004610a8c565b6108d6565b3480156102e6575f80fd5b506101076102f5366004610a8c565b61094e565b348015610305575f80fd5b506102ae7f000000000000000000000000000000000000000000000000000000000000000081565b5f546001600160a01b03163314610357576040516330cd747160e01b815260040160405180910390fd5b6003805460ff19168215159081179091556040519081527f15fd609448f6acc8ea38dc2cc399e6962d6ee3125d99735eaabb2060b14d902f906020015b60405180910390a150565b5f546001600160a01b031633146103c9576040516330cd747160e01b815260040160405180910390fd5b600380548215156101000261ff00199091161790556040517f0e2fb031ee032dc02d8011dc50b816eb450cf856abd8261680dac74f72165bd29061039490831515815260200190565b600354610100900460ff161561043b5760405163d4bd01c560e01b815260040160405180910390fd5b6002543410156104705760025460405163b99e2ab760e01b815234600482015260248101919091526044015b60405180910390fd5b60035460ff16801561050b57506040516370a0823160e01b81526001600160a01b0382811660048301525f917f0000000000000000000000000000000000000000000000000000000000000000909116906370a0823190602401602060405180830381865afa1580156104e5573d5f803e3d5ffd5b505050506040513d601f19601f820116820180604052508101906105099190610abc565b115b156105295760405163c07c0bb360e01b815260040160405180910390fd5b60025415610671576001546002546040515f926001600160a01b031691908381818185875af1925050503d805f811461057d576040519150601f19603f3d011682016040523d82523d5f602084013e610582565b606091505b50509050806105d35760405162461bcd60e51b815260206004820152601860248201527f5472656173757279207472616e73666572206661696c656400000000000000006044820152606401610467565b60025434111561066f576002545f9033906105ee9034610ad3565b6040515f81818185875af1925050503d805f8114610627576040519150601f19603f3d011682016040523d82523d5f602084013e61062c565b606091505b505090508061066d5760405162461bcd60e51b815260206004820152600d60248201526c1499599d5b990819985a5b1959609a1b6044820152606401610467565b505b505b6001600160a01b037f000000000000000000000000000000000000000000000000000000000000000016638bf9baba7f00000000000000000000000000000000000000000000000000000000000000008585855f6040519080825280602002602001820160405280156106f857816020015b60608152602001906001900390816106e35790505b506040518663ffffffff1660e01b8152600401610719959493929190610b20565b5f604051808303815f87803b158015610730575f80fd5b505af1158015610742573d5f803e3d5ffd5b505050507f0000000000000000000000000000000000000000000000000000000000000000816001600160a01b03167f7b6f4a3bbc77d87f5653f343de9896714a1cfa0850309b766de321c9d78cf93385856040516107a2929190610bd8565b60405180910390a3505050565b6003545f90610100900460ff16156107c857505f919050565b60035460ff16801561086357506040516370a0823160e01b81526001600160a01b0383811660048301525f917f0000000000000000000000000000000000000000000000000000000000000000909116906370a0823190602401602060405180830381865afa15801561083d573d5f803e3d5ffd5b505050506040513d601f19601f820116820180604052508101906108619190610abc565b115b1561086f57505f919050565b506001919050565b5f546001600160a01b031633146108a1576040516330cd747160e01b815260040160405180910390fd5b60028190556040518181527f6bfd5e75539a9d2626425a2e2922675256b219fe546d63dad56011759b9a2f6690602001610394565b5f546001600160a01b03163314610900576040516330cd747160e01b815260040160405180910390fd5b600180546001600160a01b0319166001600160a01b0383169081179091556040519081527f3c864541ef71378c6229510ed90f376565ee42d9c5e0904a984a9e863e6db44f90602001610394565b5f546001600160a01b03163314610978576040516330cd747160e01b815260040160405180910390fd5b5f80546040516001600160a01b03808516939216917f8be0079c531659141344cd1fd0a4f28419497f9722a3daafe3b4186f6b6457e091a35f80546001600160a01b0319166001600160a01b0392909216919091179055565b5f602082840312156109e1575f80fd5b813580151581146109f0575f80fd5b9392505050565b80356001600160a01b0381168114610a0d575f80fd5b919050565b5f805f60408486031215610a24575f80fd5b833567ffffffffffffffff80821115610a3b575f80fd5b818601915086601f830112610a4e575f80fd5b813581811115610a5c575f80fd5b876020828501011115610a6d575f80fd5b602092830195509350610a8391860190506109f7565b90509250925092565b5f60208284031215610a9c575f80fd5b6109f0826109f7565b5f60208284031215610ab5575f80fd5b5035919050565b5f60208284031215610acc575f80fd5b5051919050565b81810381811115610af257634e487b7160e01b5f52601160045260245ffd5b92915050565b81835281816020850137505f828201602090810191909152601f909101601f19169091010190565b8581525f6020608081840152610b3a608084018789610af8565b6001600160a01b03861660408501528381036060850152845180825282820190600581901b830184018488015f805b84811015610bc557601f198088860301875283518051808752845b81811015610b9f578281018c01518882018d01528b01610b84565b508681018b01859052978a0197601f019091169094018801935091870191600101610b69565b50919d9c50505050505050505050505050565b602081525f610beb602083018486610af8565b94935050505056fea26469706673582212200aee26acd5fcf14f26d331bebc2073345c5399fde8af16f0c8fbcb88cd939ebf64736f6c63430008140033","linkReferences":{}},"methodIdentifiers":{"canRegister(address)":"320d46d4","chainId()":"9a8a0592","limitToOne()":"4ac7ee93","owner()":"8da5cb5b","paused()":"5c975abb","price()":"a035b1fe","register(string,address)":"1e59c529","registry()":"7b103999","rootNode()":"faff50a8","setLimitToOne(bool)":"13f5347e","setPaused(bool)":"16c38b3c","setPrice(uint256)":"91b7f5ed","setTreasury(address)":"f0f44260","transferOwnership(address)":"f2fde38b","treasury()":"61d027b3"},"id":0}