{"abi":[{"type":"constructor","inputs":[{"name":"_registry","type":"address","internalType":"address"},{"name":"_treasury","type":"address","internalType":"address"},{"name":"_price","type":"uint256","internalType":"uint256"},{"name":"_limitToOne","type":"bool","internalType":"bool"}],"stateMutability":"nonpayable"},{"type":"function","name":"canRegister","inputs":[{"name":"wallet","type":"address","internalType":"address"}],"outputs":[{"name":"","type":"bool","internalType":"bool"}],"stateMutability":"view"},{"type":"function","name":"chainId","inputs":[],"outputs":[{"name":"","type":"uint64","internalType":"uint64"}],"stateMutability":"view"},{"type":"function","name":"limitToOne","inputs":[],"outputs":[{"name":"","type":"bool","internalType":"bool"}],"stateMutability":"view"},{"type":"function","name":"owner","inputs":[],"outputs":[{"name":"","type":"address","internalType":"address"}],"stateMutability":"view"},{"type":"function","name":"paused","inputs":[],"outputs":[{"name":"","type":"bool","internalType":"bool"}],"stateMutability":"view"},{"type":"function","name":"price","inputs":[],"outputs":[{"name":"","type":"uint256","internalType":"uint256"}],"stateMutability":"view"},{"type":"function","name":"register","inputs":[{"name":"label","type":"string","internalType":"string"},{"name":"recipient","type":"address","internalType":"address"}],"outputs":[],"stateMutability":"payable"},{"type":"function","name":"registry","inputs":[],"outputs":[{"name":"","type":"address","internalType":"contract IL2Registry"}],"stateMutability":"view"},{"type":"function","name":"rootNode","inputs":[],"outputs":[{"name":"","type":"bytes32","internalType":"bytes32"}],"stateMutability":"view"},{"type":"function","name":"setLimitToOne","inputs":[{"name":"_enabled","type":"bool","internalType":"bool"}],"outputs":[],"stateMutability":"nonpayable"},{"type":"function","name":"setPaused","inputs":[{"name":"_paused","type":"bool","internalType":"bool"}],"outputs":[],"stateMutability":"nonpayable"},{"type":"function","name":"setPrice","inputs":[{"name":"_price","type":"uint256","internalType":"uint256"}],"outputs":[],"stateMutability":"nonpayable"},{"type":"function","name":"setTreasury","inputs":[{"name":"_treasury","type":"address","internalType":"address"}],"outputs":[],"stateMutability":"nonpayable"},{"type":"function","name":"transferOwnership","inputs":[{"name":"_newOwner","type":"address","internalType":"address"}],"outputs":[],"stateMutability":"nonpayable"},{"type":"function","name":"treasury","inputs":[],"outputs":[{"name":"","type":"address","internalType":"address"}],"stateMutability":"view"},{"type":"event","name":"LimitToOneSet","inputs":[{"name":"enabled","type":"bool","indexed":false,"internalType":"bool"}],"anonymous":false},{"type":"event","name":"OwnershipTransferred","inputs":[{"name":"previous","type":"address","indexed":true,"internalType":"address"},{"name":"next","type":"address","indexed":true,"internalType":"address"}],"anonymous":false},{"type":"event","name":"Paused","inputs":[{"name":"paused","type":"bool","indexed":false,"internalType":"bool"}],"anonymous":false},{"type":"event","name":"PriceSet","inputs":[{"name":"price","type":"uint256","indexed":false,"internalType":"uint256"}],"anonymous":false},{"type":"event","name":"Registered","inputs":[{"name":"label","type":"string","indexed":false,"internalType":"string"},{"name":"minter","type":"address","indexed":true,"internalType":"address"},{"name":"node","type":"bytes32","indexed":true,"internalType":"bytes32"}],"anonymous":false},{"type":"event","name":"TreasurySet","inputs":[{"name":"treasury","type":"address","indexed":false,"internalType":"address"}],"anonymous":false},{"type":"error","name":"AlreadyOwnsSubdomain","inputs":[]},{"type":"error","name":"InsufficientPayment","inputs":[{"name":"sent","type":"uint256","internalType":"uint256"},{"name":"required","type":"uint256","internalType":"uint256"}]},{"type":"error","name":"LabelUnavailable","inputs":[{"name":"label","type":"string","internalType":"string"}]},{"type":"error","name":"NotOwner","inputs":[]},{"type":"error","name":"Paused_","inputs":[]}],"bytecode":{"object":"0x60e060405234801561000f575f80fd5b50604051610dae380380610dae83398101604081905261002e9161012b565b6001600160a01b03841660808190526001600160401b03461660a052604080516279834560e91b8152905163f3068a00916004808201926020929091908290030181865afa158015610082573d5f803e3d5ffd5b505050506040513d601f19601f820116820180604052508101906100a6919061017b565b60c0525f80546001600160a01b031916331790556001600160a01b038316156100cf57826100d1565b335b600180546001600160a01b0319166001600160a01b03929092169190911790556002919091556003805460ff1916911515919091179055506101929050565b80516001600160a01b0381168114610126575f80fd5b919050565b5f805f806080858703121561013e575f80fd5b61014785610110565b935061015560208601610110565b92506040850151915060608501518015158114610170575f80fd5b939692955090935050565b5f6020828403121561018b575f80fd5b5051919050565b60805160a05160c051610bc16101ed5f395f818161030b0152818161056d015281816106e5015261074201525f61025e01525f81816101ee0152818161049e01528181610540015281816106b801526107f00152610bc15ff3fe6080604052600436106100e4575f3560e01c80637b10399911610087578063a035b1fe11610057578063a035b1fe14610299578063f0f44260146102bc578063f2fde38b146102db578063faff50a8146102fa575f80fd5b80637b103999146101dd5780638da5cb5b1461021057806391b7f5ed1461022e5780639a8a05921461024d575f80fd5b8063320d46d4116100c2578063320d46d41461013b5780634ac7ee931461016f5780635c975abb1461018857806361d027b3146101a6575f80fd5b806313f5347e146100e857806316c38b3c146101095780631e59c52914610128575b5f80fd5b3480156100f3575f80fd5b506101076101023660046109db565b61032d565b005b348015610114575f80fd5b506101076101233660046109db565b61039f565b610107610136366004610a18565b610412565b348015610146575f80fd5b5061015a610155366004610a92565b6107a9565b60405190151581526020015b60405180910390f35b34801561017a575f80fd5b5060035461015a9060ff1681565b348015610193575f80fd5b5060035461015a90610100900460ff1681565b3480156101b1575f80fd5b506001546101c5906001600160a01b031681565b6040516001600160a01b039091168152602001610166565b3480156101e8575f80fd5b506101c57f000000000000000000000000000000000000000000000000000000000000000081565b34801561021b575f80fd5b505f546101c5906001600160a01b031681565b348015610239575f80fd5b50610107610248366004610aab565b610871565b348015610258575f80fd5b506102807f000000000000000000000000000000000000000000000000000000000000000081565b60405167ffffffffffffffff9091168152602001610166565b3480156102a4575f80fd5b506102ae60025481565b604051908152602001610166565b3480156102c7575f80fd5b506101076102d6366004610a92565b6108d0565b3480156102e6575f80fd5b506101076102f5366004610a92565b610948565b348015610305575f80fd5b506102ae7f000000000000000000000000000000000000000000000000000000000000000081565b5f546001600160a01b03163314610357576040516330cd747160e01b815260040160405180910390fd5b6003805460ff19168215159081179091556040519081527f15fd609448f6acc8ea38dc2cc399e6962d6ee3125d99735eaabb2060b14d902f906020015b60405180910390a150565b5f546001600160a01b031633146103c9576040516330cd747160e01b815260040160405180910390fd5b600380548215156101000261ff00199091161790556040517f0e2fb031ee032dc02d8011dc50b816eb450cf856abd8261680dac74f72165bd29061039490831515815260200190565b600354610100900460ff161561043b5760405163d4bd01c560e01b815260040160405180910390fd5b6002543410156104705760025460405163b99e2ab760e01b815234600482015260248101919091526044015b60405180910390fd5b60035460ff16801561050b57506040516370a0823160e01b81526001600160a01b0382811660048301525f917f0000000000000000000000000000000000000000000000000000000000000000909116906370a0823190602401602060405180830381865afa1580156104e5573d5f803e3d5ffd5b505050506040513d601f19601f820116820180604052508101906105099190610ac2565b115b156105295760405163c07c0bb360e01b815260040160405180910390fd5b604051631e56ca5360e01b81526001600160a01b037f00000000000000000000000000000000000000000000000000000000000000001690631e56ca5390610599907f00000000000000000000000000000000000000000000000000000000000000009087908790600401610b01565b602060405180830381865afa1580156105b4573d5f803e3d5ffd5b505050506040513d601f19601f820116820180604052508101906105d89190610b23565b6105f9578282604051632f880e6360e01b8152600401610467929190610b3e565b34156106a1576001546040515f916001600160a01b03169034908381818185875af1925050503d805f8114610649576040519150601f19603f3d011682016040523d82523d5f602084013e61064e565b606091505b505090508061069f5760405162461bcd60e51b815260206004820152601860248201527f5472656173757279207472616e73666572206661696c656400000000000000006044820152606401610467565b505b604051636292a6bf60e01b81526001600160a01b037f00000000000000000000000000000000000000000000000000000000000000001690636292a6bf90610713907f000000000000000000000000000000000000000000000000000000000000000090879087908790600401610b59565b5f604051808303815f87803b15801561072a575f80fd5b505af115801561073c573d5f803e3d5ffd5b505050507f0000000000000000000000000000000000000000000000000000000000000000816001600160a01b03167f7b6f4a3bbc77d87f5653f343de9896714a1cfa0850309b766de321c9d78cf933858560405161079c929190610b3e565b60405180910390a3505050565b6003545f90610100900460ff16156107c257505f919050565b60035460ff16801561085d57506040516370a0823160e01b81526001600160a01b0383811660048301525f917f0000000000000000000000000000000000000000000000000000000000000000909116906370a0823190602401602060405180830381865afa158015610837573d5f803e3d5ffd5b505050506040513d601f19601f8201168201806040525081019061085b9190610ac2565b115b1561086957505f919050565b506001919050565b5f546001600160a01b0316331461089b576040516330cd747160e01b815260040160405180910390fd5b60028190556040518181527f6bfd5e75539a9d2626425a2e2922675256b219fe546d63dad56011759b9a2f6690602001610394565b5f546001600160a01b031633146108fa576040516330cd747160e01b815260040160405180910390fd5b600180546001600160a01b0319166001600160a01b0383169081179091556040519081527f3c864541ef71378c6229510ed90f376565ee42d9c5e0904a984a9e863e6db44f90602001610394565b5f546001600160a01b03163314610972576040516330cd747160e01b815260040160405180910390fd5b5f80546040516001600160a01b03808516939216917f8be0079c531659141344cd1fd0a4f28419497f9722a3daafe3b4186f6b6457e091a35f80546001600160a01b0319166001600160a01b0392909216919091179055565b80151581146109d8575f80fd5b50565b5f602082840312156109eb575f80fd5b81356109f6816109cb565b9392505050565b80356001600160a01b0381168114610a13575f80fd5b919050565b5f805f60408486031215610a2a575f80fd5b833567ffffffffffffffff80821115610a41575f80fd5b818601915086601f830112610a54575f80fd5b813581811115610a62575f80fd5b876020828501011115610a73575f80fd5b602092830195509350610a8991860190506109fd565b90509250925092565b5f60208284031215610aa2575f80fd5b6109f6826109fd565b5f60208284031215610abb575f80fd5b5035919050565b5f60208284031215610ad2575f80fd5b5051919050565b81835281816020850137505f828201602090810191909152601f909101601f19169091010190565b838152604060208201525f610b1a604083018486610ad9565b95945050505050565b5f60208284031215610b33575f80fd5b81516109f6816109cb565b602081525f610b51602083018486610ad9565b949350505050565b848152606060208201525f610b72606083018587610ad9565b905060018060a01b03831660408301529594505050505056fea26469706673582212202bf4293c554713d7006e3e39ecd3e2d21d24ffb2828842b1879f140a29da4be964736f6c63430008140033","linkReferences":{}},"methodIdentifiers":{"canRegister(address)":"320d46d4","chainId()":"9a8a0592","limitToOne()":"4ac7ee93","owner()":"8da5cb5b","paused()":"5c975abb","price()":"a035b1fe","register(string,address)":"1e59c529","registry()":"7b103999","rootNode()":"faff50a8","setLimitToOne(bool)":"13f5347e","setPaused(bool)":"16c38b3c","setPrice(uint256)":"91b7f5ed","setTreasury(address)":"f0f44260","transferOwnership(address)":"f2fde38b","treasury()":"61d027b3"},"id":0}